:100000000C945D000C9485000C9485000C94850084
:100010000C9485000C9485000C9485000C9485004C
:100020000C9485000C9485000C9485000C9485003C
:100030000C9485000C9485000C9485000C9485002C
:100040000C94801A0C9485000C94B10D0C948B0DBB
:100050000C9485000C9485000C9485000C9485000C
:100060000C9485000C94850000000008000201003B
:100070000003040700000000000000000000000072
:10008000250028002B0000000000240027002A0083
:10009000040404040404040402020202020203032E
:1000A0000303030301020408102040800102040836
:1000B0001020010204081020B02211241FBECFEF2F
:1000C000D8E0DEBFCDBF13E0A0E0B1E0EEE1FEE49A
:1000D00002C005900D92AE35B107D9F729E0AEE523
:1000E000B3E001C01D92A930B207E1F710E0CDE501
:1000F000D0E004C02197FE010E94A224CC35D10794
:10010000C9F70E94CA1A0C940D270C940000089598
:10011000CF93DF931F92CDB7DEB76983DC01ED91FA
:10012000FC910280F381E02D41E050E0BE016F5F61
:100130007F4F09950F90DF91CF910895FC01818D3C
:10014000928D0895FC019485FB018485981303C06A
:1001500081E0943008F080E00895CF93DF931F9200
:10016000CDB7DEB76983DC01ED91FC910280F381AC
:10017000E02D41E050E0BE016F5F7F4F09950F9089
:10018000DF91CF910895FC01848595850895FC0148
:1001900084899589089521E232E0FC01318320832E
:1001A000FB014089518962897389FC014283538331
:1001B000648375830895DC01ED91FC91048CF58DC9
:1001C000E02D099480E00895FC01A281B381808133
:1001D0009181A817B90758F4CD01019693838283C2
:1001E0006C93A281B3811C9281E090E002C080E018
:1001F00090E024813581820F931F95838483089535
:10020000CF93DF93DC0112962D913C911397FB0164
:10021000460F571F1296CD91DC9113978D919C91AB
:100220001197C817D90760F4E417F50749F0CE0114
:10023000019613969C938E93129781918883EACFAF
:10024000188212968D919C911397821B930BDF91CC
:10025000CF910895EF92FF920F931F93CF93DF9367
:10026000CDB7DEB766970FB6F894DEBF0FBECDBF31
:100270008C01CB01FE0177969F014AE0E42EF12C20
:10028000B7010E947324805D8293CB010097C1F770
:10029000A9014E1B5F0BBF01C8010E940001F801BC
:1002A00024813581820F931F9583848366960FB6D0
:1002B000F894DEBF0FBECDBFDF91CF911F910F919C
:1002C000FF90EF9008958F929F92AF92BF92CF923E
:1002D000DF92EF92FF920F931F93CF93DF93CDB7EF
:1002E000DEB766970FB6F894DEBF0FBECDBF7C01B8
:1002F0008E01095E1F4F68018AE0882E912CA12C87
:10030000B12CCB01BA01A50194010E944224942F83
:10031000852F605DF80162938F01A901692F782F05
:10032000411551056105710561F7A6014E1B5F0B73
:10033000BF01C7010E940001F70124813581820FAE
:10034000931F9583848366960FB6F894DEBF0FBE25
:10035000CDBFDF91CF911F910F91FF90EF90DF9074
:10036000CF90BF90AF909F908F900895FC017687BB
:1003700065870895DC01ED91FC91068CF78DE02DE9
:10038000099591E089270895862F089581E08627B1
:10039000089521E0FC018485843008F020E0822F5C
:1003A0000895089580E090E00895CF92DF92EF9253
:1003B000FF920F931F93CF93DF9300D000D000D014
:1003C000CDB7DEB78C016B017A01FC01808D8430E2
:1003D00010F40E94711281E292E09A838983F601FF
:1003E00082819381A481B5818B839C83AD83BE83FD
:1003F000B701CE0101960E94CA13F801808F8430A4
:1004000030F4F586E486128E118E81E001C080E022
:1004100026960FB6F894DEBF0FBECDBFDF91CF9109
:100420001F910F91FF90EF90DF90CF900895CF93A1
:10043000DF93FC01808D843028F4EF010E9471125B
:1004400084E0888FDF91CF910895FC01808D843006
:1004500040F4218D328D232B21F00E941B1190E05E
:1004600008958FEF9FEF0895CF93DF93FC012485CC
:10047000243018F08FEF9FEF0EC0EC010190F08157
:10048000E02D0084F185E02D0995892B99F38C8569
:100490000E941B1190E0DF91CF910895CF93DF93DD
:1004A000FC01218D328D2115310519F48FEF9FEF5D
:1004B00011C0EC014217530708F0A901888D0E9472
:1004C0007E111816190694F7298D3A8D281B390BC1
:1004D0003A8F298FDF91CF9108950F931F93CF9378
:1004E000DF931F92CDB7DEB7FC01218D328D232B18
:1004F00061F08C0141E050E0BE016F5F7F4F808D65
:100500000E947E11181619061CF08FEF9FEF08C08D
:10051000F801818D928D0197928F818F898190E072
:100520000F90DF91CF911F910F910895CF93DF939B
:100530001F92CDB7DEB741E050E0BE016F5F7F4F45
:10054000FC0184850E947E11181619061CF489810D
:1005500090E002C08FEF9FEF0F90DF91CF91089551
:10056000FC018485843010F40C947E1180E090E0CE
:100570000895FC018485843010F40C94481180E0C7
:1005800090E008950F931F93CF93DF93CDB7DEB71D
:1005900028970FB6F894DEBF0FBECDBF8C01D801EF
:1005A00059964D915C915A974115510551F0ED9135
:1005B000FC91048CF58DE02D60E070E0C801099598
:1005C000EECFF801808D0E944811892B51F148E04F
:1005D00050E0BE016F5F7F4FD80158968C910E940A
:1005E0007E1118161906FCF4D801509684E0FE011D
:1005F000319601900D928A95E1F78D8190E0982FC8
:1006000088272E81820F911DF801958B848B8F8115
:1006100090E0982F88272885820F911D928F818FD7
:1006200002C080E090E028960FB6F894DEBF0FBEBF
:10063000CDBFDF91CF911F910F910895AF92BF92DF
:10064000CF92DF92EF92FF920F931F93CF93DF939E
:10065000CDB7DEB7AF970FB6F894DEBF0FBECDBFF4
:100660008C015B016A01CE0101960E94AA1381E20E
:10067000E82E82E0F82EFBA6EAA61CA61DA61EA662
:100680001FA68091960690919706A0919806B0912A
:1006900099068EA39FA3A8A7B9A78B839C83AD833C
:1006A000BE8318861F82AE01465D5F4FB501CE0145
:1006B00001960E941F1581309105B1F4D801ED918A
:1006C000FC910488F589E02DFDA2ECA28CA59DA5E6
:1006D000AEA5BFA58EA39FA3A8A7B9A7A601BE01DB
:1006E0006C5D7F4FC8010995AF960FB6F894DEBFD9
:1006F0000FBECDBFDF91CF911F910F91FF90EF9073
:10070000DF90CF90BF90AF9008950F931F93CF933A
:10071000DF93EC018B01888D843010F40E947112FC
:100720008091F005882329F0B80182E00E94860FAD
:1007300001C084E0888F843030F41D870C871A8EC6
:10074000198E81E001C080E0DF91CF911F910F9160
:100750000895FC018485843010F40C94EC1080E042
:1007600090E008952091F00590E0233311F40C9669
:1007700001C04896982F990F990F990F80E008951E
:10078000DA0190916103E92FF0E0FE2FEE27E60FEA
:10079000F71F90E0982F8827A901BD018E0F9F1F9A
:1007A0000C948A0ECF93DF9300D0CDB7DEB7798358
:1007B0006A8322E030E0AE014F5F5F4F60E170E09E
:1007C0000E94C0030F900F90DF91CF910895CF93B7
:1007D000DF9300D0CDB7DEB779836A8322E030E0C3
:1007E000AE014F5F5F4F64E070E00E94C0030F9066
:1007F0000F90DF91CF910895CF93DF931F92CDB7E4
:10080000DEB790916103292F30E0322F2227260F87
:10081000371F90E0982F8827498341E050E0BE01C0
:100820006F5F7F4F820F931F0E948A0E0F90DF91A0
:10083000CF910895CF93DF931F92CDB7DEB79091FC
:100840006103292F30E0322F2227260F371F90E037
:10085000982F882741E050E0BE016F5F7F4F820FE5
:10086000931F0E94FD0D89810F90DF91CF91089514
:10087000DA0190916103E92FF0E0FE2FEE27E60FF9
:10088000F71F90E0982F8827A901BD018E0F9F1FA9
:100890000C94FD0D08958CBD9DBD08951F93CF93BD
:1008A000DF9300D0CDB7DEB7182FCE0101960E949E
:1008B000491A89819A810E944B0463E070E0812F7C
:1008C0000E941A040F900F90DF91CF911F9108950D
:1008D000CF93DF93EC018C858430C8F40E944E04E2
:1008E000843181F0882371F0883161F08C3161F4BA
:1008F000E881F9810084F185E02DCE01099521E0A0
:10090000892B19F420E001C021E0822F01C080E092
:10091000DF91CF910895CF92DF92EF92FF92CF9324
:10092000DF93EC018C85843038F50E9455120E94CB
:10093000741A6B017C018C850E944E048823D1F0CF
:1009400061E070E080E090E00E94E5140E94741A7B
:10095000AB01BC014C195D096E097F098D859E852F
:10096000A0E0B0E0481759076A077B0720F38C85A1
:100970000E94711284E08C87DF91CF91FF90EF90FD
:10098000DF90CF900895CF93DF93EC018C85843076
:1009900060F40E944E04873111F08C3131F48C8563
:1009A0000E94EC108115984088F3DF91CF91089553
:1009B000CF92DF92EF92FF920F931F93CF93DF932B
:1009C000CDB7DEB7AF970FB6F894DEBF0FBECDBF81
:1009D0008C016B017A01CE0101960E94AA1381E27B
:1009E00092E09BA78AA71CA61DA61EA61FA6D8013B
:1009F0001C968C91843060F40E944E04882321F070
:100A0000F80184850E94551284E0D8011C968C93CD
:100A10008091960690919706A0919806B0919906BC
:100A20008EA39FA3A8A7B9A78B839C83AD83BE8306
:100A300018861F82AE01465D5F4FB601CE0101965A
:100A40000E941F150097C1F0D801ED91FC9106841A
:100A5000F785E02D81E292E09DA38CA38CA59DA556
:100A6000AEA5BFA58EA39FA3A8A7B9A7A701BE0146
:100A70006C5D7F4FC8010995AF960FB6F894DEBF45
:100A80000FBECDBFDF91CF911F910F91FF90EF90DF
:100A9000DF90CF9008957F928F929F92AF92BF92F6
:100AA000CF92DF92EF92FF920F931F93CF93DF933A
:100AB00000D0CDB7DEB77C014B01742EC52EFC01F2
:100AC000A688B788D08CCE0101960E94491A8981E8
:100AD0009A810E944B048D2D0E94B010072D1C2D71
:100AE0008017910708F48C019801A401B5018D2DA0
:100AF0000E943110F70186899789800F911F978B8B
:100B0000868BC8010F900F90DF91CF911F910F91AD
:100B1000FF90EF90DF90CF90BF90AF909F908F901D
:100B20007F9008951F93CF93DF9300D0CDB7DEB7AA
:100B3000FC01108DCE0101960E94491A89819A818B
:100B40000E944B0460E270E0812F0E94E30D62E09E
:100B500070E0812F0E941A0484FD18C062E070E0EA
:100B6000812F0E941A0483FF08C048E162E070E010
:100B7000812F0E94FC0380E010C0CE0101960E94EC
:100B8000491A89819A810E944B04E1CF40E162E0D9
:100B900070E0812F0E94FC0381E090E00F900F90A5
:100BA000DF91CF911F910895DF92EF92FF920F9303
:100BB0001F93CF93DF9300D0CDB7DEB7FB01DC01ED
:100BC00057961C921E9256972281211109C02381AB
:100BD000211106C02481211103C025812223F9F0AF
:100BE00041155105E1F07A018F01FC01D08CCE0155
:100BF00001960E94491A89819A810E944B04A8019A
:100C00004E5F5F4F24E030E06CE070E08D2D0E947D
:100C1000C003B7018D2D0E94D20381E001C080E0A6
:100C200090E00F900F90DF91CF911F910F91FF9067
:100C3000EF90DF9008950F931F93CF93DF9300D031
:100C4000CDB7DEB7FC0124852430D0F48C01CE0171
:100C500001960E94491A89819A810E944B0422E0E0
:100C600030E0AE014F5F5F4F60E170E0F8018485D6
:100C70000E94380489819A8198278927982702C081
:100C800080E090E00F900F90DF91CF911F910F9136
:100C900008950F931F93CF93DF9300D0CDB7DEB7A6
:100CA000FC0124852430D0F48C01CE0101960E94F1
:100CB000491A89819A810E944B0422E030E0AE01FA
:100CC0004F5F5F4F64E070E0F80184850E94380454
:100CD00089819A8198278927982702C080E090E02F
:100CE0000F900F90DF91CF911F910F9108956F9208
:100CF0007F928F929F92AF92BF92CF92DF92EF92AC
:100D0000FF921F93CF93DF9300D0CDB7DEB7FC01E6
:100D10001485143008F061C06A014130F8E05F07C3
:100D200018F0C12C28E0D22E7A013B015C01CE01E3
:100D300001960E94491A89819A810E944B04812F51
:100D40000E94B0104C0163E070E0812F0E941A04F1
:100D5000873111F08C3121F48C149D0440F302C0D2
:100D6000C12CD12CCE0101960E94491A89819A8109
:100D70000E944B049601A30160E070E0812F0E9465
:100D8000311060E270E0812F0E94E30D62E070E0BC
:100D9000812F0E941A0484FD16C063E070E0812F49
:100DA0000E941A04811106C081E090E0F50193834E
:100DB000828313C0CE0101960E94491A89819A81CB
:100DC0000E944B04E3CF40E162E070E0812F0E947B
:100DD000FC03CD2849F3C70102C080E090E00F90EA
:100DE0000F90DF91CF911F91FF90EF90DF90CF9008
:100DF000BF90AF909F908F907F906F900895AF922B
:100E0000BF92CF92DF92EF92FF920F931F93CF93F7
:100E1000DF9300D0CDB7DEB78C016B015A01FC0126
:100E20008485843058F40E944E04882321F0F80110
:100E300084850E94551284E0F8018487F60182813E
:100E40009381A481B5810097A105B10509F462C021
:100E50008F3F9F4FAF4FBF4F09F45CC08091F005AB
:100E6000882339F060E070E081E20E94860FF82E5E
:100E700002C084E0F82EF801F486F3E0FF1508F4D0
:100E800049C0CE0101960E94491A89819A810E9427
:100E90004B04A6014E5F5F4F24E030E06CE070E051
:100EA0008F2D0E94C003B5018F2D0E94D20364E0F4
:100EB00070E08F2D0E94E30D0E94741A6B017C017B
:100EC000F80184850E944E04873139F18C3129F173
:100ED000882301F10E94741AAB01BC014C195D0911
:100EE0006E097F09F80185859685A0E0B0E084173A
:100EF0009507A607B70738F061E070E080E090E062
:100F00000E94E514DDCFF80184850E94711284E00F
:100F1000F801848780E090E002C081E090E00F90CB
:100F20000F90DF91CF911F910F91FF90EF90DF9085
:100F3000CF90BF90AF900895CF93DF93EC01FB016A
:100F400001900020E9F73197AF01461B570B0E9433
:100F500000012C813D81820F931F9D838C83DF9143
:100F6000CF910895FF920F931F93CF93DF93611555
:100F7000710549F463E473E0DF91CF911F910F9104
:100F8000FF900C949C078B01EC0162E2CE010E9461
:100F9000E400F80161918F01662351F0E4E3F3E08E
:100FA000F080FF2099F38181681759F03296F8CFCD
:100FB00062E2CE01DF91CF911F910F91FF900C94CF
:100FC000E4006CE5CE010E94E4006F2DDFCF2F928C
:100FD0003F924F925F926F927F928F929F92AF92C9
:100FE000BF92CF92DF92EF92FF920F931F93CF9316
:100FF000DF93CDB7DEB766970FB6F894DEBF0FBEAE
:10100000CDBF7C018B01DC0114968C918F778630EB
:1010100009F4BEC068F4823008F4C9C0843008F412
:101020009AC0D7016D917C91C8010E94B20748C255
:101030008C3009F190F4883009F4A1C08A3009F0AD
:10104000B6C0F701C080D180E280F3806DE2C801B4
:101050000E94E400B701A60197C0803209F44BC09A
:10106000803409F0A4C06BE5C8010E94E400F701D8
:10107000E080F1803BC0F701408051806280738046
:10108000A3019201C301B2010E94152581118FC0F5
:1010900020E030E0A901C301B2010E941525882398
:1010A00009F48BC0A3019201C301B2010E94A924DB
:1010B0009B01AC01C301B2010E94152581117DC0C5
:1010C00076C0B801C7010E94E707D70115968C9139
:1010D000882379F0B8E08B02E00CF11C1124E114B4
:1010E000F10439F06CE2C8010E94E400E114F1045B
:1010F00041F76DE52CC06BE7C8010E94E400F701E1
:10110000E080F180E114F10409F1D70116966D91A8
:101110007C911797C8010E94B2076AE3C8010E9438
:10112000E400B801C7010E94E707F7018581882321
:1011300069F0F8E08F02E00CF11C1124E114F104D5
:1011400029F06CE2C8010E94E400DCCF6DE7C80121
:101150000E94E400B5C1F701428153816081718131
:10116000C8010E940001D80114962D913C91159759
:10117000820F931F15969C938E931497A1C1D7014C
:101180004D915D916D917C91C8010E94630198C160
:10119000F70180819181A281B381892B8A2B8B2BCE
:1011A00019F06BE473E005C060E573E002C063E42E
:1011B00073E0C8010E949C0783C120E030E0A901D0
:1011C000C301B2010E94152587FF08C06DE2C80166
:1011D0000E94E40077FA709477F8709420E836E97A
:1011E00048E15BE4C301B2010E946D2687FD33C074
:1011F0006BE5C62E61E0D62E7BE2A72E71E0B72EFE
:10120000E0E2EE2EF12C212C312CA3019201D6012B
:101210009E918E917E916E916D010E9415251816FA
:101220006CF0F5012489358946895789C301B201DB
:101230000E9472262B013C012E0C3F1CF594E79472
:10124000F4E0AF1AB10883E4C81681E0D806E9F6E5
:10125000BB24BA9407C030E2E32EF12C45E0B42E53
:10126000212C312C20E030E0A901C301B2010E9401
:101270006D26181694F52CEA35EC47E257E3C301C6
:10128000B2010E941525181644F19FEFB91629F1F5
:10129000AB2DB4E0AB0260011124F601ED5EFE4F10
:1012A000A301920160817181828193810E946D26E8
:1012B00018167CF4F601ED5BFE4F208131814281EE
:1012C0005381C301B2010E9472262B013C012E18EA
:1012D0003F08F594E794BA94D8CFC301B2010E94B5
:1012E0008C254B015C016B017C01E6E0EE8B80E418
:1012F00092E4AFE0B0E08A8B9B8BAC8BBD8B9E8978
:10130000998BA92FA150AE8BBAE0CB16D104E10482
:10131000F104C8F06A897B898C899D892AE030E0D4
:1013200040E050E00E9442242A8B3B8B4C8B5D8B2B
:10133000C701B6012AE030E040E050E00E944224BC
:1013400069017A01DCCFC501B4010E94BB259B0174
:10135000AC01C301B2010E94A8246B017C016A891F
:101360007B898C899D890E94BB259B01AC01C701AB
:10137000B6010E9472262B013C010E948C256B0154
:101380007C010E94BB259B01AC01C301B2010E94FC
:10139000A8249B01AC010E94A9240E948C25C60EA2
:1013A000D71EE81EF91E8A899B89AC89BD89C8169B
:1013B000D906EA06FB06E0F09FEF891A990AA90A06
:1013C000B90A2114310489F0AAE08A169104A10413
:1013D000B10458F0BFEF2B1A3B0AC12CD12C760177
:1013E000812C912C5401839403C0C12CD12C760103
:1013F0008AE0482E512C612C712CC701B601A30143
:1014000092010E944224672B682B692B41F4E989E1
:101410001E162CF469017A01E150E98BEECFB5017B
:10142000A401C8010E946301F989FF2391F15F2E95
:101430003E0181E1680E711C53015A949FEF5916C9
:1014400079F0C701B6012AE030E040E050E00E94A8
:101450004224605DD3016E933D0169017A01EDCFB5
:10146000B501B9896B1B71098EE2FB018293BF0143
:10147000A5014E1B5F0BC8010E940001D801149604
:101480002D913C911597820F931F15969C938E93E7
:10149000149737FE0AC068E473E0C8010E949C07F5
:1014A000662777276219730908C02114310441F0B7
:1014B00065E6C8010E94E400B101C8010E942A014A
:1014C00066960FB6F894DEBF0FBECDBFDF91CF9109
:1014D0001F910F91FF90EF90DF90CF90BF90AF9052
:1014E0009F908F907F906F905F904F903F902F9044
:1014F0000895CF92DF92EF92FF920F931F93CF93B5
:10150000DF93FC018481982F9F7739F48078806283
:1015100084831182108213821282848185FF51C0DC
:101520007A018B016F01C081D1812097D9F06E8142
:101530007F8160177107A1F00115110541F0611558
:10154000710529F0C8010E94FD26882349F08D818C
:10155000882341F098E08902C00DD11D1124E5CF08
:10156000CE0131C0D7011496ED91FC9115971296DA
:101570008D919C9113970896E817F90710F1389709
:10158000E701FD83EC833097E1F0E601AA81BB819E
:10159000109769F0CF018A1B9B0B23E095958795E7
:1015A0002A95E1F715968C93FB83EA8304C0F983AF
:1015B000E883FB83EA831582148217830683CF01B5
:1015C00002C080E090E0DF91CF911F910F91FF90DA
:1015D000EF90DF90CF900895EF92FF920F931F93BB
:1015E000CF93DF9300D000D0CDB7DEB78C017B0165
:1015F000FB018485843050F081E292E0F801918310
:101600008083128213821482158219C0CE01019642
:101610000E94491A89819A810E944B0424E030E09B
:10162000AE014F5F5F4F6CE070E0F70184850E9470
:101630003804BE016F5F7F4FC8010E947F0DC80153
:101640000F900F900F900F90DF91CF911F910F91FE
:10165000FF90EF900895CF92DF92EF92FF920F9359
:101660001F93CF93DF936C017A018B01C0E0D0E030
:10167000CE15DF0581F0D8016D918D01D601ED9178
:10168000FC910190F081E02DC6010995892B11F0A4
:101690002196EECF7E01C701DF91CF911F910F916F
:1016A000FF90EF90DF90CF900895FC01538D448D13
:1016B000252F30E0842F90E0821B930B541710F0FD
:1016C000CF96089501970895FC01918D828D98170A
:1016D00061F0828DDF01A80FB11D5D968C91928D16
:1016E0009F5F9F73928F90E008958FEF9FEF089513
:1016F000FC01918D828D981731F0828DE80FF11DDC
:10170000858D90E008958FEF9FEF0895FC01918DF6
:10171000228D892F90E0805C9F4F821B91098F73EF
:101720009927089581EF95E00E94860B21E0892B8F
:1017300009F420E0822F0895FC01848DDF01A80FB9
:10174000B11DA35ABF4F2C91848D90E001968F73E9
:101750009927848FA689B7892C93A089B1898C9108
:10176000837080648C93938D848D981306C0028857
:10177000F389E02D80818F7D80830895EF92FF9221
:101780000F931F93CF93DF93EC0181E0888F9B8DA4
:101790008C8D981305C0E889F989808185FD26C064
:1017A000F62E0B8D10E00F5F1F4F0F731127E02EE9
:1017B0008C8DE8120CC00FB607FCFACFE889F989C6
:1017C000808185FFF5CFCE010E949C0BF1CF8B8DE0
:1017D000FE01E80FF11DE35AFF4FF0829FB7F89426
:1017E0000B8FEA89FB89808180620AC09FB7F894D9
:1017F000EE89FF896083E889F9898081837080643C
:1018000080839FBF81E090E0DF91CF911F910F9186
:10181000FF90EF900895CF93DF93EC01888D88239C
:10182000C9F0EA89FB89808185FD05C0A889B9894D
:101830008C9186FD0FC00FB607FCF5CF808185FF28
:10184000F2CFA889B9898C9185FFEDCFCE010E9496
:101850009C0BE7CFDF91CF91089580E090E0892B3A
:1018600029F00E94920B81110C9400000895FC0154
:1018700020812EBD9B012150310941F051810DB4D1
:1018800007FEFDCF4EB55EBD4193F5CF61507109A6
:10189000FC01E60FF71F0DB407FEFDCF8EB5808368
:1018A0000895E0915F03F0916003908180915E0361
:1018B00080958923808308958EBD00000DB407FEB6
:1018C000FDCF8EB508950E94E426EF92FF920F930C
:1018D0001F93CF93DF93EC018B017A010E94741A5E
:1018E000FE01E85FFD4F60837183828393838C8167
:1018F0009D81DC01ED91FC910280F381E02DA70137
:10190000B801DF91CF911F910F91FF90EF90099453
:101910001F93CF93DF93EC01162F0E94741AFE01E0
:10192000E85FFD4F60837183828393838C819D8107
:10193000DC01ED91FC910190F081E02D612FDF91B0
:10194000CF911F910994FF920F931F93CF93DF9331
:1019500000D0CDB7DEB7F82E22E030E0AE014F5F09
:101960005F4F66E270E00E94380409811A811027F7
:101970000127102722E030E0AE014F5F5F4F66E2A3
:1019800070E08F2D0E94380489819A8198278927D9
:1019900098270817190711F08C01ECCFC8010F9098
:1019A0000F90DF91CF911F910F91FF9008956115D6
:1019B000710579F0FB0101900020E9F73197AF0143
:1019C000461B570BDC01ED91FC910280F381E02D69
:1019D000099480E090E008958F929F92AF92BF9219
:1019E000EF92FF920F931F93CF93DF93CDB7DEB7A4
:1019F000A1970FB6F894DEBF0FBECDBF7C01FA01F0
:101A0000CB0119A2223008F42AE08E010F5D1F4F8E
:101A1000822E912CA12CB12CBF01A50194010E9412
:101A20004224F901CA01015011096A3014F4605DC1
:101A300001C0695CD8016C93232B242B252B61F703
:101A4000B801C7010E94D70CA1960FB6F894DEBF6B
:101A50000FBECDBFDF91CF911F910F91FF90EF90FF
:101A6000BF90AF909F908F9008958F929F92AF926A
:101A7000BF92CF92DF92EF92FF920F931F93CF937B
:101A8000DF937C01EB016C0182E0C80ED11C4701A1
:101A9000E5E08E0E911C00E010E0F60141916F012F
:101AA00050E060E070E02AE0CE010E94EC0C5C01A6
:101AB000E881F9810190F081E02D6EE2CE01099577
:101AC0008A0D9B1D080F191F8C149D0431F7F70117
:101AD000458150E060E070E02AE0CE010E94EC0C0D
:101AE000800F911FDF91CF911F910F91FF90EF9089
:101AF000DF90CF90BF90AF909F908F900895DC01C2
:101B000081E292E08D939D9384E0FB0101900D9220
:101B10008A95E1F708951F920F920FB60F92112444
:101B20002F933F934F935F936F937F938F939F93E5
:101B3000AF93BF93EF93FF9381EF95E00E949C0BCF
:101B4000FF91EF91BF91AF919F918F917F916F9195
:101B50005F914F913F912F910F900FBE0F901F906B
:101B600018951F920F920FB60F9211242F938F93F7
:101B70009F93EF93FF93E0910106F091020680811D
:101B8000E0910706F091080682FD12C090818091D5
:101B90000A068F5F8F7320910B06821751F0E09138
:101BA0000A06F0E0EF50FA4F958F80930A0601C0C5
:101BB0008081FF91EF919F918F912F910F900FBE98
:101BC0000F901F901895CF93C82F462F61E070E0BB
:101BD0000E94FC0361E070E08C2F0E941A048111C6
:101BE000F9CFCF910895E0915F03F0916003908168
:101BF00080915E03892B80830895AF92BF92CF922C
:101C0000DF92EF92FF920F931F93CF93DF9300D059
:101C100000D0CDB7DEB78C016B017A018091F00561
:101C20008333F1F45B016801C40ED51E0C151D054C
:101C300009F460C00E94510C8FE00E945C0C812F5F
:101C40000E945C0C802F0E945C0C0F5F1F4F80E095
:101C50000E945C0CF50181935F010E94F30DE6CFB9
:101C60008433F1F40E94510C19830A838F2D8F77EE
:101C70008B83EC8264E070E0CE0101960E94370C09
:101C8000A70160E070E0C6010E94F626E114F104AD
:101C900021F0B701C6010E94370C0E94F30D2AC043
:101CA0000E94510C0F3F110509F020F419820A839C
:101CB0001B821DC017FD0BC019820A8333E01695E5
:101CC00007953A95E1F7007E08600B8310C0C801C4
:101CD00026E0969587952A95E1F719830A83807EF9
:101CE0000115104C10F4806101C088618B8363E0A2
:101CF00070E0C2CFC7010F900F900F900F90DF914F
:101D0000CF911F910F91FF90EF90DF90CF90BF90F8
:101D1000AF900895AF92BF92CF92DF92EF92FF9271
:101D20000F931F93CF93DF93CDB7DEB728970FB6EE
:101D3000F894DEBF0FBECDBF8C017B016A0180919C
:101D4000F0058333E1F45801A40EB51E0A151B05F6
:101D500009F48BC00E94510C80EF0E945C0C812F13
:101D60000E945C0C802F0E945C0C0F5F1F4FF701DC
:101D700081917F010E945C0C0E94F30DE7CF8433B8
:101D800021F50E94510C19830A838D2D80688B8365
:101D9000CC8264E070E0CE0101960E94370C87018E
:101DA0000C0D1D1DE016F10669F0F70181917F0110
:101DB0000E945C0CF7CFB6016D5F7F4FCE0101969C
:101DC0000E94370C0E94F30D50C00E94510C0F3F2F
:101DD000110509F020F419820A8384E01CC017FD64
:101DE0000BC019820A8333E0169507953A95E1F7FF
:101DF000007E0C600B8310C0C80126E09695879585
:101E00002A95E1F719830A83807E0115104C10F49E
:101E1000846101C08C618B8326E0C216D10498F4E2
:101E200020E0822F90E08C159D0528F6E4E0F0E09C
:101E3000EC0FFD1FE80FF91FD701A80FB91F8C91F8
:101E400080832F5FEECF63E070E0CE0101960E94A9
:101E5000370C87010C0D1D1DF70181917F010E9438
:101E60005C0CE016F106C1F7ADCFC60128960FB69F
:101E7000F894DEBF0FBECDBFDF91CF911F910F91C0
:101E8000FF90EF90DF90CF90BF90AF900895CF93E9
:101E9000DF931F92CDB7DEB741E050E0BE016F5F28
:101EA0007F4F80E090E00E94FD0D89810F90DF91CF
:101EB000CF910895CF93DF931F92CDB7DEB789837B
:101EC00041E050E0BE016F5F7F4F80E090E00E94F4
:101ED0008A0E0F90DF91CF910895CF93DF9380E822
:101EE0000E945A0FC4E1D0E00E94470F882351F0AE
:101EF00061E070E080E090E00E94E5142197A1F796
:101F000080E001C081E0DF91CF910895AF92BF9250
:101F1000CF92DF92EF92FF920F931F93CF93DF93B5
:101F200000D000D000D0CDB7DEB7082F6B01CE01B6
:101F300001960E94491A89819A810E944B049E0150
:101F40002F5F3F4F7901590110E063E070E0812F6E
:101F50000E941A04F50181935F018823D1F01F5F6D
:101F6000143099F710E0F70181917F018D3161F014
:101F7000883151F08A51823038F01F5F143099F760
:101F80000E944A0484E05CC060E170E0812F0E94FE
:101F9000E30DE12EF12C83EE93E00197F1F7402F52
:101FA00060E070E0812F0E94FC034FEF62E070E080
:101FB000812F0E94FC03C114D10411F0B60113C09B
:101FC000809106019091070101968115F0EC9F0721
:101FD00010F480E090EC90930701809306016091EB
:101FE000060170910701812F0E94E70361E070E014
:101FF000812F0E94E30D27E02E9DC0012F9D900DA3
:1020000011249C0124533A4F7901F9011182108265
:1020100022E030E0AE014B5F5F4F68E270E0812F5D
:102020000E9438048D819E81982789279827F7017F
:10203000938382831682158214820E944A04812F20
:1020400026960FB6F894DEBF0FBECDBFDF91CF91BD
:102050001F910F91FF90EF90DF90CF90BF90AF90C6
:1020600008957F928F929F92AF92BF92CF92DF920C
:10207000EF92FF920F931F93CF93DF9300D0CDB7D2
:10208000DEB7782E8B014A01590122E030E0AE0123
:102090004F5F5F4F64E270E00E943804E980FA808D
:1020A000FE24EF24FE24E00EF11E970137704091CC
:1020B000F005072D10E0C801433311F4089601C064
:1020C0004096982F8827990F990F990F820F931F89
:1020D000473319F4A501B40120C0A9014A0D5B1DC5
:1020E00041305840B8F360E078E06B01C21AD30A7F
:1020F000A601B4010E948A0EA5014C195D09B40124
:102100006C0D7D1D8091F005833339F5085F1F4FFD
:10211000902F990F990F990F80E00E948A0EEA0C78
:10212000FB1CF982EA8222E030E0AE014F5F5F4F94
:1021300064E270E0872D0E94C0030F900F90DF9142
:10214000CF911F910F91FF90EF90DF90CF90BF90B4
:10215000AF909F908F907F900895005F1F4FD8CFD2
:10216000EF92FF921F93CF93DF9300D0CDB7DEB7EE
:10217000182F22E030E0AE014F5F5F4F60E270E069
:102180000E943804E980FA80FE24EF24FE2422E035
:1021900030E0AE014F5F5F4F60E270E0812F0E9440
:1021A000380489819A81982789279827E816F906A3
:1021B00011F07C01ECCF87E0189FF0011124E4536B
:1021C000FA4FF582E482C7010F900F90DF91CF9113
:1021D0001F91FF90EF900895FF920F931F93CF935D
:1021E000DF9300D0CDB7DEB7F82ECE0101960E9466
:1021F000491A89819A810E944B048F2D0E94B01048
:102200008C0163E070E08F2D0E941A04F82E0E946A
:102210004A0487E1F81631F08CE1F81619F080E0F5
:1022200090E001C0C8010F900F90DF91CF911F91F6
:102230000F91FF9008951F93CF93DF9300D0CDB7F8
:10224000DEB7182FCE0101960E94491A89819A8122
:102250000E944B04812F0E94B20327E0129FF001DD
:102260001124E453FA4F22813381377041E050E06A
:10227000BE016F5F7F4F820F931F0E94FD0D0E9472
:102280004A0489810F900F90DF91CF911F9108959B
:10229000EF92FF920F931F93CF93DF9300D0CDB7B0
:1022A000DEB7482F87E0489F90011124F901E453DD
:1022B000FA4F7F01808191810097B9F4142FCE01EC
:1022C00001960E94491A89819A810E944B04812FAC
:1022D0000E94A30C8C010E944A04F7018681980198
:1022E000281B3109C901318320830F900F90DF91A2
:1022F000CF911F910F91FF90EF9008954F925F92B1
:102300007F928F929F92AF92BF92CF92DF92EF9285
:10231000FF920F931F93CF93DF9300D0CDB7DEB71B
:10232000782E6B014A01A82EB12C27E0829FC001B4
:102330001124AC0144535A4F7A01FA0100811181F2
:10234000CE0101960E94491A89819A810E944B040C
:102350000815190554F4872D0E94A30CF701268156
:102360008C01021B11091183008301151105A9F4C9
:1023700063E070E0872D0E941A04843109F480C064
:10238000882309F47DC001E010E08C3111F400E0F5
:1023900010E011950195110973C0801691060CF497
:1023A000840187E08A9DF0018B9DF00D1124E45398
:1023B000FA4FE280F380C114D10459F12701F7E00C
:1023C0005F22872D0E94B203840D951D2091F00598
:1023D000273319F4A801B6011AC09801240D351D40
:1023E00021303840B8F320E038E0490184189508DE
:1023F000A401B6010E94FD0D2601480C591C68017C
:10240000C818D908872D0E94B203A601B2010E9404
:10241000FD0DE00EF11E87E08A9DF0018B9DF00D11
:102420001124E453FA4FF382E28280819181801B70
:10243000910B918380832681A801420F511D4A3F51
:10244000510510F4892BD9F487E08A9DF0018B9D0A
:10245000F00D1124E453FA4F1682F982EA8222E049
:1024600030E0AE014F5F5F4F68E270E0872D0E9461
:10247000C00360E470E0872D0E94E30D01C0468335
:102480000E944A04C8010F900F90DF91CF911F91D5
:102490000F91FF90EF90DF90CF90BF90AF909F9003
:1024A0008F907F905F904F9008951F93CF93DF930D
:1024B00000D0CDB7DEB7182FCE0101960E94491A81
:1024C00089819A810E944B0468E070E0812F0E940C
:1024D000E30D0E944A040F900F90DF91CF911F915E
:1024E00008951F93CF93DF9300D0CDB7DEB7182F99
:1024F000CE0101960E94491A89819A810E944B045B
:1025000060E170E0812F0E94E30D0E944A040F9069
:102510000F90DF91CF911F91089520E3FC0120835C
:102520003296862F82958F7090E1899F60191124D1
:102530006A3014F4605D01C0695C6293682F811198
:10254000F0CF08957F928F929F92AF92BF92CF92D9
:10255000DF92EF92FF920F931F93CF93DF93CDB74C
:10256000DEB7A6970FB6F894DEBF0FBECDBF8C01C5
:10257000762E942E852E20E2B22ECE0101967C017D
:10258000FC012B2D11922A95E9F781E292E09AA3A2
:1025900089A38FEF8BA38CA38DA38EA3680183E403
:1025A000C80ED11C43E450E0BE016F5D7F4FC601F1
:1025B0000E94D405019609F4B9C081E089838A8319
:1025C00086E0A82EAB821C82F80164817581868129
:1025D00097810E9487246D837E838F839887898665
:1025E0009A8680E890E09C878B874CE150E0B701A9
:1025F000C6010E944B05F7012B2D11922A95E9F790
:10260000480188E0880E911CF401D70101900D92D9
:10261000AA94E1F740E150E0B701C6010E944B05E2
:10262000F7011192BA94E9F796E0A92EB12C40E295
:1026300050E0B701C6010E944B05F1E0AF1AB108A6
:10264000B1F783E6898392E89A8393E59B838C8331
:1026500085E38D8381E08E837F829DE3988797E079
:1026600099878A8786E0F401DE011B9601900D921E
:102670008A95E1F78CE0898B8A8B66E573E0CE0161
:1026800043960E940627F8016385CE0149960E9471
:102690008D12F8016485CE014B960E948D12F801CF
:1026A0006585CE014D960E948D124EE150E0B70136
:1026B000C6010E944B05F3E07F121EC082E38983AE
:1026C00084E08A83F80196859B8397859C83908913
:1026D0009D8391899E8396E39F838887828D8987D6
:1026E000838D8A87848D8B87858D8C874CE050E025
:1026F000B701C6010E944B0587E3898386E08A8380
:1027000091E09B8393E09C838D838FE08E838AE3AB
:102710008F838BE388878FEF898749E050E0B7018B
:10272000C6010E944B05C6010E949205A6960FB6EF
:10273000F894DEBF0FBECDBFDF91CF911F910F91F7
:10274000FF90EF90DF90CF90BF90AF909F908F90D1
:102750007F900895FC0181E292E091838083128250
:102760001382148215821386128648EE53E060E0CD
:1027700070E044875587668777872DE831E0318799
:102780002087978B868B108E118E128E138E84E08D
:1027900080A308958F929F92AF92BF92CF92DF92C3
:1027A000EF92FF921F93CF93DF93CDB7DEB72C97B5
:1027B0000FB6F894DEBF0FBECDBF2091F0052223E7
:1027C00009F4B4C06B017C01CE0101960E94491A44
:1027D00089819A810E944B045E0127E0A20EB11C00
:1027E000450110E063E070E0812F0E941A04F401BB
:1027F00081934F018823C9F01F5F143099F710E0CF
:10280000F50181915F018D3159F0883149F08A518C
:10281000823030F01F5F143099F70E944A0486C05E
:1028200060E170E0812F0E94E30DA12EB12C83EEB8
:1028300093E00197F1F742E860E070E0812F0E9499
:10284000FC034FEF62E070E0812F0E94FC03C11493
:10285000D10411F0B60113C08091060190910701D7
:1028600001968115F0EC9F0710F480E090EC9093B6
:102870000701809306016091060170910701812F85
:102880000E94E70386E0EBE5F1E0DE01119601909E
:102890000D928A95E1F7F70183818F778C8384818C
:1028A0008D8385818E83A7014E5F5F4F24E030E0EA
:1028B0006CE070E0812F0E94C003B601812F0E945E
:1028C000D20326E030E0AE014F5F5F4F66E070E07C
:1028D000812F0E94C00361E070E0812F0E94E30D10
:1028E00027E02A9DC0012B9D900D11249C012453AB
:1028F0003A4F7901F9011182108222E030E0AE01F5
:10290000455F5F4F68E270E0812F0E9438048B853D
:102910009C85982789279827F701938382831682BD
:10292000158214820E944A04812F01C084E02C96F3
:102930000FB6F894DEBF0FBECDBFDF91CF911F91D0
:10294000FF90EF90DF90CF90BF90AF909F908F90CF
:102950000895CF93DF9390E0FC01EC55FF4F249155
:10296000FC01E057FF4F8491882361F190E0880FCC
:10297000991FFC01EA57FF4FC591D491FC01E4581F
:10298000FF4FA591B491611109C09FB7F894888158
:10299000209582238883EC912E230BC0623061F452
:1029A0009FB7F8948881322F309583238883EC91E8
:1029B0002E2B2C939FBF06C08FB7F894E8812E2B47
:1029C00028838FBFDF91CF9108958F929F92AF920E
:1029D000BF92CF92DF92EF92FF926B017C010E9437
:1029E0004F1A4B015C01C114D104E104F104F1F070
:1029F0000E944F1ADC01CB0188199909AA09BB0969
:102A0000883E9340A105B10570F321E0C21AD108B8
:102A1000E108F10888EE880E83E0981EA11CB11C25
:102A2000C114D104E104F10419F7DDCFFF90EF9058
:102A3000DF90CF90BF90AF909F908F9008954F926E
:102A40005F926F927F928F929F92AF92BF92CF923E
:102A5000DF92EF92FF920F931F93CF93DF93CDB747
:102A6000DEB763970FB6F894DEBF0FBECDBF7C0113
:102A70005B013A01FB0120E080E090E06AE03191E7
:102A8000332309F140ED430F4A3080F4689FA001E1
:102A9000699F500D1124CA01C097830F911D37FD06
:102AA0009A958F3F910559F350F313C03E3289F444
:102AB000233079F0D301A20FB11D12968C932F5FB2
:102AC00080E090E0DCCF233021F4F301858381E0C6
:102AD00021C0F70142815381648175818091900604
:102AE00090919106A0919206B091930648175907CC
:102AF0006A077B0709F491C10E94741A8701085F75
:102B00001F4F6F7077277C5FC8010E94850381305B
:102B100019F080E090E0D9C181E292E09A83898344
:102B2000F70182819381A481B5818B839C83AD83DE
:102B3000BE8345E350E0BE016F5F7F4FC8010E9436
:102B4000D405892B19F4C12CD12C62C10E94741AAE
:102B5000F7017783668342E050E0B7016A5F7F4FF9
:102B6000C8010E944B0581E090E09A83898342E08E
:102B700050E0BE016F5F7F4FC8010E944B0580E0AF
:102B800091E09A83898342E050E0BE016F5F7F4FFE
:102B9000C8010E944B051A82198242E050E0BE0132
:102BA0006F5F7F4FC8010E944B0542E050E0BE01BD
:102BB0006F5F7F4FC8010E944B0542E050E0BE01AD
:102BC0006F5F7F4FC8010E944B054501F501808171
:102BD000882301F164015601F60181912F018823B8
:102BE00021F08E3211F06201F6CFC818D9081C14FA
:102BF0001D0474F4CD8641E050E0BE01635F7F4F59
:102C0000C8010E944B05A601B401C8010E944B05F2
:102C10004201DCCF1D8641E050E0BE01635F7F4F83
:102C2000C8010E944B05C12CDD24D394DA82C982ED
:102C300042E050E0BE016F5F7F4FC8010E944B052C
:102C4000DA82C98242E050E0BE016F5F7F4FC80167
:102C50000E944B05C8010E949205892B09F473CF8D
:102C6000E3E0AE2EB12C230122E0420E511C0E9463
:102C7000741A3B014C01C8010E94C20218161906C1
:102C8000A4F00E94741ADC01CB0186199709A809E7
:102C9000B90989389341A105B105D0F462E370E028
:102CA00080E090E00E94E514E6CFF7014281538175
:102CB00064817581808D918DA28DB38D48175907E0
:102CC0006A077B0749F4848D958DC59729F409C05F
:102CD000CC24CA94DC2C93C05EEFC52EDD24DA949C
:102CE0008EC0F70181A192A10C970CF4E9C04CE0D1
:102CF00050E0BE016F5F7F4FC8010E944E028B8182
:102D00009C819827892798279A8B898BF701468180
:102D1000578129813A814217530709F0C2C097FFB2
:102D2000C0C08F709270892B09F0C0C06F8078840A
:102D30007624672476246114710409F4BCC0C12C84
:102D4000D12C8D819E81982789279827C816D9066E
:102D500008F466C0812C912C41E050E0BE016D5E0C
:102D60007F4FC8010E944E024B89842F807C09F05E
:102D700076C0442331F050E060E070E0C8010E946A
:102D80004E028B898111E8CF42E050E0BE01615FC5
:102D90007F4FC8010E944E0242E050E0BE01635FD7
:102DA0007F4FC8010E944E0244E050E060E070E0B6
:102DB000C8010E944E0242E050E0BE016F5E7F4FAC
:102DC000C8010E944E028F85988949895A898115C8
:102DD000914009F04DC0CD84DE84DC24CD24DC2478
:102DE00081E0C816D10409F043C04115544009F0F0
:102DF00053C044E050E0B201C8010E944E0221E0FD
:102E0000A21AB10829F0FFEFCF16DF0609F42FCF81
:102E1000C8010E941702C60158C08EEF9FEF55C02F
:102E200041E050E0BE01635F7F4FC8010E944E0247
:102E30004D85442331F050E060E070E0C8010E940D
:102E40004E028D858111ECCF44E050E060E070E0EF
:102E5000C8010E944E02FFEFCF1ADF0A72CF41E095
:102E600050E060E070E0C8010E944E021B8A89CFEA
:102E700054274527542760E070E0C8010E944E02A5
:102E8000FFEF8F1A9F0A6814790409F065CF96EF57
:102E9000C92EDD24DA94B3CF77EFC72EDD24DA9480
:102EA000AECF4CEFC42EDD24DA94A9CF3BEFC32E76
:102EB000DD24DA94A4CF2AEFC22EDD24DA949FCF4A
:102EC0008DEFC82EDD24DA949ACF63960FB6F8946E
:102ED000DEBF0FBECDBFDF91CF911F910F91FF904D
:102EE000EF90DF90CF90BF90AF909F908F907F90AA
:102EF0006F905F904F9008952F923F924F925F9204
:102F00006F927F928F929F92AF92BF92CF92DF92F9
:102F1000EF92FF920F931F93CF93DF93CDB7DEB75E
:102F2000E9970FB6F894DEBF0FBECDBF7C014A0112
:102F30005B0119010E94741A2B013C0187010D5B92
:102F40001F4FC8010E94C20218161906A4F00E9461
:102F5000741ADC01CB0184199509A609B7098816F2
:102F60009906AA06BB06D8F062E370E080E090E024
:102F70000E94E514E6CF42E250E0BE016F5F7F4F52
:102F8000C8010E944E028981823011F080E035C173
:102F9000F8018489958983349105C1F702C08FEFC8
:102FA0002CC16D817E818F8198850E9487242B01A1
:102FB0003C01F101608371838283938346E050E09A
:102FC000B701685F7F4FCE014D960E94E926892B9D
:102FD000E9F6F70180819181A281B38148165906F3
:102FE0006A067B0698F284819581A681B781841553
:102FF0009505A605B70550F289899A89AB89BC89E0
:1030000086879787A08BB18B4EEC50E060E070E034
:10301000C8010E944E021FA66701F2E2CF0ED11C2A
:10302000C701869699AB88ABF701BA96FBABEAABC2
:103030004701FAE18F0E911C8D969DAB8CABF70189
:103040007296FFABEEABCD9799AF88AF17019EE1BB
:10305000290E311CF801818D928D181619060CF07D
:10306000CBC0C8010E946D028333910509F4A5C04D
:10307000ACF48130910569F11CF4892B59F3B6C089
:103080008330910571F1069709F0B0C0C8010E9424
:103090006D025C0144E050E0B1012BC08A33910520
:1030A00009F45FC034F48533910559F0C69771F186
:1030B0009DC08B33910509F46AC08F3F910551F291
:1030C00095C0C8010E946D02C8010E946D028FA7C1
:1030D000C1CFC8010E946D0244E050E06EA97FA9F3
:1030E00011C0C8010E946D025C0144E050E068AD6F
:1030F00079ADC8010E944E02A501552744505109DF
:1031000060E070E0C8010E944E02A4CFC8010E9496
:103110006D025C01B401CE0183960E947F0D8DA1EA
:103120009EA1AFA1B8A5892B8A2B8B2BA1F0ECA96E
:10313000FDA94080518062807380B401CE018996E0
:103140000E947F0D8BA59CA5ADA5BEA584159505F8
:10315000A605B70521F444E050E0B401D3CFA501A2
:1031600049C0C8010E946D0244E050E068A979A9F5
:10317000C8010E944E02F70166A177A180A591A522
:103180000E94872466A377A380A791A763CFC80175
:103190000E946D0244E050E06AA97BA9C8010E9428
:1031A0004E02F70162A573A584A595A50E94872408
:1031B00062A773A784A795A74DCFC8010E946D028F
:1031C00044E050E0B601C8010E944E02F70162A13E
:1031D00073A184A195A10E94872462A373A384A3F1
:1031E00095A366A777A780AB91AB34CFC8010E94A7
:1031F0006D02AC01552784CF8FA5E9960FB6F894E0
:10320000DEBF0FBECDBFDF91CF911F910F91FF9019
:10321000EF90DF90CF90BF90AF909F908F907F9076
:103220006F905F904F903F902F900895CF92DF92D4
:10323000EF92FF92CF93DF936B017C016DE281EF00
:1032400095E00E94BE0BEC0144275527BA014C19AA
:103250005D096E097F092AE081EF95E00E94EC0C80
:103260008C0F9D1FDF91CF91FF90EF90DF90CF905B
:103270000895CF93DF93BC0181EF95E00E94D70CB6
:10328000EC016CE972E081EF95E00E94D70C8C0FA5
:103290009D1FDF91CF910895CF93DF93EC01FA0149
:1032A0003296E60FF71FDC01AD014C1B5D0BCF0121
:1032B000861B970B2D91222311F02193F5CF9C01B2
:1032C000241B350B620F731FFB013297508331961D
:1032D0004083DF91CF910895EF92FF920F931F9358
:1032E000CF93DF9300D000D0CDB7DEB77B01BA011A
:1032F00030E0962F9F77660F672F661F770B7195CB
:103300006115710509F0906821E0230FE1E0F0E01C
:10331000EC0FFD1FE30FF11D90836115710511F096
:10332000322FE7CF30E0B701621B730B6C5F7F4F2A
:10333000DB018C93DE011196F701E21BF30B35964E
:1033400085E0E80EF11CEE16FF0619F08D918193D1
:10335000FACF80919E0690919F062F5F3F4F890183
:10336000040F151FDC01ED91FC910280F381E02D2B
:10337000A80109957C010E94741A6093A2087093B9
:10338000A3088093A4089093A50881E00E151F055B
:1033900009F080E00F900F900F900F90DF91CF9188
:1033A0001F910F91FF90EF900895CF92DF92EF92CF
:1033B000FF92CF93DF93EC010E94741A6B017C01A2
:1033C00080919E0690919F06DC01ED91FC91008416
:1033D000F185E02D0995892B79F40E94741ADC019E
:1033E000CB018C199D09AE09BF0988399A43A10503
:1033F000B10530F380E00DC080919E0690919F064C
:10340000DC01ED91FC910284F385E02D0995888320
:1034100081E0DF91CF91FF90EF90DF90CF90089502
:10342000CF9380919E0690919F06009771F1DC01E9
:10343000ED91FC910688F789E02D0995C1E0811195
:1034400025C0C0E08091B9089091BA08892BF1F4A9
:103450008DEF9FEF9093BA088093B90880919E06F4
:1034600090919F06DC01ED91FC910680F781E02DA3
:10347000099580919E0690919F06DC01ED91FC914B
:103480000488F589E02D099501C0C0E08C2FCF910B
:10349000089520E5FC01208321E0218308953FB7B2
:1034A000F8948091050990910609A0910709B091BF
:1034B000080926B5A89B05C02F3F19F00196A11D4C
:1034C000B11D3FBFBA2FA92F982F8827820F911DBA
:1034D000A11DB11DBC01CD0142E0660F771F881F01
:1034E000991F4A95D1F708952FB7F8946091010973
:1034F0007091020980910309909104092FBF0895EA
:103500001F920F920FB60F9211242F933F938F9318
:103510009F93AF93BF938091010990910209A0916D
:103520000309B09104093091000923E0230F2D37DE
:1035300020F40196A11DB11D05C026E8230F0296B7
:10354000A11DB11D209300098093010990930209E8
:10355000A0930309B093040980910509909106098D
:10356000A0910709B09108090196A11DB11D809392
:10357000050990930609A0930709B0930809BF9124
:10358000AF919F918F913F912F910F900FBE0F9010
:103590001F901895CF93DF93CDB7DEB7CF5DD109DC
:1035A0000FB6F894DEBF0FBECDBF789484B58260AD
:1035B00084BD84B5816084BD85B5826085BD85B5D7
:1035C000816085BD80916E00816080936E00109255
:1035D00081008091810082608093810080918100D0
:1035E0008160809381008091800081608093800061
:1035F0008091B10084608093B1008091B0008160BF
:103600008093B00080917A00846080937A008091EA
:103610007A00826080937A0080917A008160809342
:103620007A0080917A00806880937A001092C100BD
:10363000E0910106F091020682E08083E091FD05B1
:10364000F091FE051082E091FF05F09100068FECED
:10365000808310920906E0910506F091060686E047
:103660008083E0910306F09104068081806180836D
:10367000E0910306F0910406808188608083E091E8
:103680000306F0910406808180688083E091030640
:10369000F091040680818F7D808389E292E00E9410
:1036A000391960E08FE00E94A9148091C403811150
:1036B0002AC01092AC031092AB0388EE93E0A0E016
:1036C000B0E08093AD039093AE03A093AF03B093AB
:1036D000B0038DE891E09093AA038093A90381E25F
:1036E00092E09093B8038093B7031092B9031092BD
:1036F000BA031092BB031092BC0384E08093C10311
:1037000081E08093C40386E693E090936503809301
:10371000640380916303811159C160E372E080E02A
:1037200090E00E94E5141FB7F89480916203811124
:1037300066C08AE990E0FC0124914EEA50E0FA016B
:103740003491E22FF0E0EE0FFF1FEA57FF4FA591F3
:10375000B4912C91232309F040C0E2E7F0E02491DA
:10376000FA013491FC0194919923B9F1222339F1A2
:10377000233091F038F42130A9F0223001F584B5DE
:103780008F7D12C0273091F02830A1F02430B9F499
:10379000809180008F7D03C0809180008F7780931F
:1037A00080000DC084B58F7784BD09C08091B000C2
:1037B0008F7703C08091B0008F7D8093B000E92F98
:1037C000F0E0EE0FFF1FE458FF4FA591B4919FB7B3
:1037D000F8948C91382B3C939FBF61E08AE00E9463
:1037E000A9148CB580618CBD8CB580648CBD61E002
:1037F0008DE00E94A91461E08BE00E94A9148091E1
:1038000062038F5F809362031FBFEAE9F0E0E491F7
:10381000F0E0EE0FFF1FE458FF4F859194919093D5
:10382000600380935F03EEEAF0E0E491E0935E03CF
:1038300061E08AE00E94A9140E94F30DCE01019676
:103840000E94491A89819A810E944B0484E38093E3
:10385000F0050E946D0F882309F188E00E945A0F3D
:103860000E94470F8830D1F480E10E945A0F0E94D5
:10387000470F803199F480E00E945A0F0E94470F51
:1038800081110CC041E050E0BE016F5F7F4F8FE1BE
:1038900090E00E94FD0D8981833099F187E3809348
:1038A000F0050E946D0F882309F44EC088E00E9445
:1038B0005A0F0E94470F883009F046C080E10E94ED
:1038C0005A0F0E94470F182F8031F1F580E00E94B7
:1038D0005A0F0E94470F811137C041E050E0BE01EE
:1038E0006F5F7F4F89E390E00E94FD0D89818430F6
:1038F00059F5109361030E944A0481E080936303A9
:1039000065C080E48093610310E042E06EE170E006
:10391000812F0E94FC0342E06FE170E0812F0E9442
:10392000FC031F5F143089F740E06EE170E0812FE7
:103930000E94FC0340E06FE170E0812F0E94FC03D5
:103940001F5F183089F7D7CF83E38093F0050E947B
:103950006D0F882339F080E10E945A0F0E94470FB3
:10396000803129F01092F0050E944A044FC182E193
:103970000E945A0F0E94470F8231A1F780E00E94F7
:103980005A0F0E94470F8111EDCF84E080936103AD
:1039900015E5C352DF4F1883CD5DD04041E050E0C4
:1039A000BE0163527F4F8BE190E00E948A0EC452A9
:1039B000DF4F1883CC5DD04041E050E0BE0164523F
:1039C0007F4F8AE190E00E948A0E95CFCE0101964A
:1039D0000E94491A89819A810E944B0446E050E076
:1039E00060E071E089E090E00E948A0E81E292E05E
:1039F0009A8389831B821C821D821E8244E050E0D0
:103A0000BE016D5F7F4F8FE090E00E948A0E0E94A2
:103A10004A040091640310916503D80192961D92A7
:103A20001D921D921C929597F80116A217A210A63E
:103A300011A69A961D921D921D921C929D9780E64A
:103A40009AEEA0E0B0E086AB97ABA0AFB1AF80EA52
:103A50009FE0A0E0B0E082AF93AFA4AFB5AF3E96D9
:103A600084E1DF011D928A95E9F786E0E0E0F1E06C
:103A7000D801189601900D928A95E1F7F801EE5B56
:103A8000FF4FC252DF4FF983E883CE5DD0401082F2
:103A90000E94B9232FEC37E040E050E00E94102450
:103AA000DC01CB010196A11DB11DF8018483958332
:103AB000A683B78380839183A283B3835801F3E401
:103AC000AF0EB11CC5010E94170264E470E0C5018D
:103AD0000E948503882309F499C00E94741A2B015F
:103AE0003C01812C912C48EEC42E43E0D42EE12CD5
:103AF000F12C52E0252EC252DF4FA881B981CE5D54
:103B0000D0408C91833009F070C3C5010E94170228
:103B1000F80184819581A681B7810196A11DB11D0F
:103B200084839583A683B7830E94741AF801FE9656
:103B300060837183828393838A94892809F066C0A5
:103B4000CE0101960E94491A89819A810E944B04F4
:103B50006091640370916503625F7F4FCE010196AF
:103B60000E947F0D44E050E0BE016D5F7F4F8FE00B
:103B700090E00E948A0E60916403709165036A5E12
:103B80007F4FCE0101960E947F0D44E050E0BE01C0
:103B90006D5F7F4F81E090E00E948A0E6091640328
:103BA000709165036E5E7F4FCE0101960E947F0D7E
:103BB00044E050E0BE016D5F7F4F85E090E00E94E1
:103BC0008A0E0E944A046091640370916503625EEC
:103BD0007F4FCE0101960E947F0D8B819C81AD812C
:103BE000BE818093960690939706A0939806B09313
:103BF00099060E944F1A7F738091060190910701E8
:103C00006827792770930701609306016CED75E0D2
:103C100080E090E00E94E5148DE492E09093B40877
:103C20008093B3088BE597E09093B6088093B5082E
:103C30004EEF842E99249A941E0128E0220E311C06
:103C40000E94101A811143C18FE592E00E94391938
:103C50000E94101A811136C16091B3087091B408A6
:103C600080919E0690919F064091B5085091B608AC
:103C7000DC01ED91FC916115710521F00088F1895D
:103C8000E02D16C00684F785E02D21E232E03A836C
:103C900029830091AF081091B0082091B1083091AC
:103CA000B2080B831C832D833E83BE016F5F7F4F61
:103CB00009958130910509F000C19093A108809386
:103CC000A00887E0ECE0F1E0DE01119601900D9292
:103CD0008A95E1F7FE013196A5EAB6E081918D93D0
:103CE0002E163F06D9F732E03093AC061092AD069F
:103CF0008FE08093AE064FE050E060EA76E085E723
:103D000092E00E944C19AC014550510960EA76E0FE
:103D100080E10E946C190E94741A6093A20870934B
:103D2000A3088093A4089093A5086093A6087093B5
:103D3000A7088093A8089093A90880919E06909167
:103D40009F06DC01ED91FC910084F185E02D099541
:103D5000892BE1F40E94741A0091A6081091A7081B
:103D60002091A8083091A908DC01CB01801B910BA0
:103D7000A20BB30B88399A43A105B105F0F22CEFE1
:103D80003FEF3093BA082093B9088BC080EA96E0E1
:103D90000E94D519811146C33BC08C01CE018A52C5
:103DA0009F4F0E94D519882399F1C8010196CA52E4
:103DB000DF4F2881C65DD040F70121937F01422F5C
:103DC0004F7750E0449DB001459D700D549D700D9E
:103DD0001124C60ED71E37E0440C551C661C771CF8
:103DE0003A95D1F727FF17C085309105B1F6EFEF6F
:103DF000FFEFF093BA08E093B90880919E06909186
:103E00009F06DC01ED91FC910488F589E02D099570
:103E100000E010E029C077247A94780EC252DF4F78
:103E2000F881CE5DD040F03309F416C320E0E12CD8
:103E3000F12C422E512CDC01A656B94F5D018C01AC
:103E4000481A590AF401E719F1093F01C201800F2C
:103E5000911F8C159D0508F424C38091B70890919B
:103E6000B808892B09F455C304301105D1F48091A9
:103E7000A306811111C00E94741A6093A608709362
:103E8000A7088093A8089093A9081092AA081092F6
:103E9000BA081092B90816C090E09093BA088093BF
:103EA000B90880919E0690919F06DC01ED91FC91EE
:103EB0000488F589E02D099532C39092BA08809262
:103EC000B9082DC38CE792E00E943919B9CE1E01C2
:103ED000BEE02B0E311C8E010A521F4FE1E4E0932D
:103EE0007C0080917A00806480937A0080917A00CF
:103EF00086FDFCCF609178008091790070E0782B8E
:103F0000072E000C880B990B0E94BD2520E030E0A5
:103F100040E85AE30E94722620E030E04AE755E488
:103F20000E94722620E030E040E251E40E941A250F
:103F30006B017C0166E872E081EF95E00E94D70C8E
:103F4000A7019601C701B6010E94DF26882319F058
:103F500060E972E01AC046015701E894B7F82FEF04
:103F60003FEF4FE75FE7C501B4010E94DF268111F3
:103F700011C02FEF3FEF4FE75FE7C501B4010E948B
:103F8000152518163CF464E972E081EF95E00E9473
:103F9000D70C7DC02FEF3FEF4FE75FE4C701B601BD
:103FA0000E946D2618161CF468E972E0EECF2FEF20
:103FB0003FEF4FE75FECC701B6010E94152587FD73
:103FC000F3CF20E030E0A901C701B6010E9415251A
:103FD00087FF09C06DE281EF95E00E94BE0BC7012B
:103FE000B601905802C0C701B6012AE037ED43EA96
:103FF0005BE30E94A9242B013C010E948C254B010C
:104000005C010E94BB259B01AC01C301B2010E946F
:10401000A8242B013C012AE0B501A40181EF95E021
:104020000E94EC0C6EE281EF95E00E94BE0B20E056
:1040300030E040E251E4C301B2010E9472262B013C
:104040003C010E948C254B01A12CB12C2AE0B5012A
:10405000A40181EF95E00E94EC0CC501B4010E941F
:10406000BB259B01AC01C301B2010E94A82420E042
:1040700030E040E251E40E9472260E948C25AB01A0
:1040800060E070E02AE081EF95E00E94EC0C6CE9C2
:1040900072E081EF95E00E94D70C4091B9085091F1
:1040A000BA08052E000C660B770B77FF05C0CB0115
:1040B000BA010E94161905C02AE081EF95E00E941E
:1040C000EC0C6CE972E081EF95E00E94D70C3A822B
:1040D00029823C822B821E830D8318870F838D8556
:1040E00080788D87AE014F5F5F4F6FE972E0CE0140
:1040F00009960E94790AFC01892B41F094819078FD
:104100009460948322EA32E031832083AE014F5FD2
:104110005F4F69EB72E0CE0109960E94790AFC01BB
:10412000892B41F0948190789C609483C082D182E5
:10413000E282F382AE014F5F5F4F65EC72E0CE0129
:1041400009960E94790AFC01892B41F094819078AC
:10415000946094838FEC92E0918380831092CC03DF
:10416000EBECF5E0D8011196FC93EE932CEC33E0E8
:1041700013963C932E93129715961C921E921497A9
:10418000B801CE0109960E94E7078EEE92E00E94E8
:1041900039198CEC93E00E9439190E94101A882377
:1041A000D9F045E050E060EA76E086E093E00E94D6
:1041B0004C19E5E1F3E0DC01A056B94F21912D93B4
:1041C00033E0E132F307D1F7AC01495F5F4F60EABA
:1041D00076E080E30E946C1960E177E280E090E095
:1041E0000E94E5140E942D0C79CE811124C0F801A3
:1041F00084819581A681B7810196A11DB11D84831B
:104200009583A683B7830E94741A64197509860979
:104210009709A70196010E944224A90161E0C80103
:104220000E94A21281E0C252DF4FA881B981CE5D07
:10423000D0408C93DEC0843019F5F80184819581DB
:10424000A681B7810196A11DB11D84839583A683A4
:10425000B7830E94741A6419750986099709A70122
:1042600096010E944224A90163E0C8010E94A212A3
:10427000C252DF4FA881B981CE5DD0402C92B9C027
:10428000813079F5F80142AD53AD64AD75AD9E0155
:104290002F5F3F4FC8010E947C17382EF2E08F132A
:1042A0009EC089819A81AB81BC81F801848395830A
:1042B000A683B7830E94741A641975098609970941
:1042C000A70196010E944224A90163E0C8010E944F
:1042D000A212C252DF4FA881B981CE5DD0403C927C
:1042E00088C0823009F085C0F80142AD53AD64AD9D
:1042F00075AD9E012F5F3F4FC8010E947C17382E7D
:10430000F5E08F1361C0E3E0C252DF4FA881B981AD
:10431000CE5DD040EC93F80182A193A1A4A1B5A1F8
:10432000892B8A2B8B2B41F484E893E0A0E0B0E04A
:1043300082A393A3A4A3B5A3F80186A197A1A0A5E6
:10434000B1A5892B8A2B8B2B61F482A193A1A4A107
:10435000B5A1B695A7959795879586A397A3A0A78E
:10436000B1A7F80182A593A5A4A5B5A5892B8A2B91
:104370008B2BA9F482A193A1A4A1B5A1AC01BD018D
:1043800023E076956795579547952A95D1F7841B35
:10439000950BA60BB70B82A793A7A4A7B5A7F80107
:1043A00086A197A1A0A5B1A586A797A7A0ABB1AB01
:1043B00082A593A5A4A5B5A582AB93ABA4ABB5ABE1
:1043C00088248394912C15C0F6E08F1308C0C25244
:1043D000DF4FA881B981CE5DD0401C920AC0BFEFEB
:1043E0003B1207C0C252DF4FE881F981CE5DD04059
:1043F0001082F1E08F16910409F47DCB0E94741AAB
:10440000DC01CB0184199509A609B709F80126A991
:1044100037A940AD51AD281739074A075B0708F0A7
:104420006ACB73CB8091A006807FC252DF4F888316
:10443000CE5DD040CA52DF4F1882C65DD04081EABF
:10444000E82E86E0F82E01E010E0C12CD12C412CA2
:10445000512C32014394A2CC8056994F0E94D51919
:10446000882309F4D5CCC8018E55994F0E94D519DF
:10447000882309F4CDCCC8010396E72DF0E0E65679
:10448000F94FE780F12CFE2CEE242085E20EF11C82
:104490002091A00621FF03C022E0E20EF11C22E0E1
:1044A000C8CCCE018A529F4F0E94D519882309F4A7
:1044B000AFCC8091B7089091B8080097C9F0C2526C
:1044C000DF4FF881CE5DD040F03391F49301200F9F
:1044D000311FE216F30660F4DC01ED91FC910190CE
:1044E000F081E02DCA52DF4F6881C65DD04009954A
:1044F0000115B2E01B0738F4CA52DF4F8881C65D50
:10450000D040F50186830F5F1F4FFFEFAF1ABF0A40
:104510009DCC013022E0120708F07ACCA5CC62E2F3
:1045200073E081EF95E00E94D70C4091B90850915B
:10453000BA08052E000C660B770B77FF05C0CB0180
:10454000BA010E94161905C02AE081EF95E00E9489
:10455000EC0C60ED77E080E090E00E94E51470CB19
:10456000E1EFF5E01382128248EE53E060E070E084
:10457000448355836683778387EB91E091838083BF
:1045800085EC90E09587848784EC90E09787868718
:1045900080EC90E0918B808B81EC90E0938B828B10
:1045A00082EC90E0958B848B86EC90E0978B868BE9
:1045B000118E128E138E148EEBEBF8E081E292E0F6
:1045C000918380831282138214821582E1ECF8E0D9
:1045D000918380831282138214821582EEE8F6E0C2
:1045E000918380831282138214821582E7ECF8E0B3
:1045F000918380831282138214821582EDECF8E09D
:10460000918380831282138214821582E3EDF8E095
:10461000918380831282138214821582E9EDF8E07F
:10462000918380831282138214821582EFEDF8E069
:10463000918380831282138214821582E5EEF8E062
:10464000918380831282138214821582E4E9F6E05A
:10465000918380831282138214821582EAEFF8E03C
:10466000918380831282138214821582EBEEF8E02C
:1046700013821282448355836683778323EF31E06C
:104680003183208324E0248728EE33E03687258792
:10469000AAE9B6E013961C921E92129729EC31E01B
:1046A00011963C932E939093AE088093AD08109290
:1046B000AF081092B0081092B1081092B2088FEFB4
:1046C0009FEF9093BA088093B9081596FC93EE93E8
:1046D00014971092B8081092B70808958F929F927D
:1046E000AF92BF92CF92DF92EF92FF92CF93DF9380
:1046F000EC01688179818A819B8161157105810551
:10470000910521F464E279ED8BE597E02DE133EF3B
:1047100041E050E00E94102449015A019B01AC0184
:10472000A7EAB1E40E942F246B017C01ACEEB4EF48
:10473000A50194010E943D24DC01CB018C0D9D1D3F
:10474000AE1DBF1DB7FF03C00197A109B048888304
:104750009983AA83BB83BC01CD019F77DF91CF9161
:10476000FF90EF90DF90CF90BF90AF909F908F9091
:1047700008958F929F92AF92BF92CF92DF92EF9265
:10478000FF92609108017091090180910A01909156
:104790000B01611571058105910521F464E279ED44
:1047A0008BE597E02DE133EF41E050E00E941024CB
:1047B00049015A019B01AC01A7EAB1E40E942F24F0
:1047C0006B017C01ACEEB4EFA50194010E943D2485
:1047D000DC01CB018C0D9D1DAE1DBF1DB7FF03C0BD
:1047E0000197A109B0488093080190930901A09313
:1047F0000A01B0930B01BC01CD019F77FF90EF90B0
:10480000DF90CF90BF90AF909F908F90089560936E
:1048100008017093090180930A0190930B01089598
:10482000052E97FB1EF400940E94272457FD07D005
:104830000E94422407FC03D04EF40C942724509588
:104840004095309521953F4F4F4F5F4F089590957C
:104850008095709561957F4F8F4F9F4F08950E946F
:104860006424A59F900DB49F900DA49F800D911D71
:1048700011240895B7FF0C942F240E942F24821B2B
:10488000930B0895A1E21A2EAA1BBB1BFD010DC0BC
:10489000AA1FBB1FEE1FFF1FA217B307E407F507F0
:1048A00020F0A21BB30BE40BF50B661F771F881FCC
:1048B000991F1A9469F760957095809590959B0162
:1048C000AC01BD01CF010895A29FB001B39FC0010B
:1048D000A39F700D811D1124911DB29F700D811D2C
:1048E0001124911D089597FB072E16F4009407D00C
:1048F00077FD09D00E948E2407FC05D03EF49095E8
:1049000081959F4F0895709561957F4F0895692710
:10491000962769277827872778270895AA1BBB1B26
:1049200051E107C0AA1FBB1FA617B70710F0A61BAF
:10493000B70B881F991F5A95A9F780959095BC01D0
:10494000CD010895EE0FFF1F0590F491E02D09941D
:104950005058BB27AA270E94C0240C9433260E94DB
:10496000252638F00E942C2620F039F49F3F19F4B8
:1049700026F40C9422260EF4E095E7FB0C941C26FA
:10498000E92F0E94442658F3BA1762077307840779
:10499000950720F079F4A6F50C9466260EF4E095C0
:1049A0000B2EBA2FA02D0B01B90190010C01CA01E9
:1049B000A0011124FF27591B99F0593F50F4503E94
:1049C00068F11A16F040A22F232F342F4427585F86
:1049D000F3CF469537952795A795F0405395C9F79E
:1049E0007EF41F16BA0B620B730B840BBAF0915056
:1049F000A1F0FF0FBB1F661F771F881FC2F70EC0F5
:104A0000BA0F621F731F841F48F4879577956795C7
:104A1000B795F7959E3F08F0B0CF9395880F08F0B3
:104A20009927EE0F9795879508950E94F82508F429
:104A300081E008950E942E250C9433260E942C2696
:104A400058F00E94252640F029F45F3F29F00C948D
:104A50001C2651110C9467260C9422260E94442691
:104A600068F39923B1F3552391F3951B550BBB279D
:104A7000AA2762177307840738F09F5F5F4F220FE2
:104A8000331F441FAA1FA9F335D00E2E3AF0E0E8D9
:104A900032D091505040E695001CCAF72BD0FE2F23
:104AA00029D0660F771F881FBB1F261737074807B7
:104AB000AB07B0E809F0BB0B802DBF01FF2793586F
:104AC0005F4F3AF09E3F510578F00C941C260C94F1
:104AD00067265F3FE4F3983ED4F386957795679514
:104AE000B795F7959F5FC9F7880F911D96958795A4
:104AF00097F90895E1E0660F771F881FBB1F6217C3
:104B000073078407BA0720F0621B730B840BBA0B80
:104B1000EE1F88F7E09508950E944C2688F09F5775
:104B200098F0B92F9927B751B0F0E1F0660F771FD1
:104B3000881F991F1AF0BA95C9F714C0B13091F0C7
:104B40000E946626B1E008950C946626672F782FA0
:104B50008827B85F39F0B93FCCF38695779567958C
:104B6000B395D9F73EF490958095709561957F4FF8
:104B70008F4F9F4F0895E89409C097FB3EF490959E
:104B80008095709561957F4F8F4F9F4F9923A9F026
:104B9000F92F96E9BB279395F695879577956795B5
:104BA000B795F111F8CFFAF4BB0F11F460FF1BC0F9
:104BB0006F5F7F4F8F4F9F4F16C0882311F096E98C
:104BC00011C0772321F09EE8872F762F05C066233A
:104BD00071F096E8862F70E060E02AF09A95660FF3
:104BE000771F881FDAF7880F9695879597F90895AC
:104BF000990F0008550FAA0BE0E8FEEF16161706EE
:104C0000E807F907C0F012161306E407F50798F055
:104C1000621B730B840B950B39F40A2661F0232B6E
:104C2000242B252B21F408950A2609F4A140A695EA
:104C30008FEF811D811D089597F99F6780E870E0CF
:104C400060E008959FEF80EC089500240A94161602
:104C5000170618060906089500240A94121613066A
:104C6000140605060895092E0394000C11F48823F8
:104C700052F0BB0F40F4BF2B11F460FF04C06F5F14
:104C80007F4F8F4F9F4F089557FD9058440F551FEA
:104C900059F05F3F71F04795880F97FB991F61F0BE
:104CA0009F3F79F087950895121613061406551F35
:104CB000F2CF4695F1DF08C0161617061806991FA1
:104CC000F1CF86957105610508940895E894BB2796
:104CD00066277727CB0197F908950E94F82508F4F5
:104CE0008FEF08950E9485260C9433260E94252676
:104CF00038F00E942C2620F0952311F00C941C26ED
:104D00000C94222611240C9467260E94442670F3EA
:104D1000959FC1F3950F50E0551F629FF001729F60
:104D2000BB27F00DB11D639FAA27F00DB11DAA1F6F
:104D3000649F6627B00DA11D661F829F2227B00DBC
:104D4000A11D621F739FB00DA11D621F839FA00D47
:104D5000611D221F749F3327A00D611D231F849F97
:104D6000600D211D822F762F6A2F11249F575040EE
:104D70009AF0F1F088234AF0EE0FFF1FBB1F661F69
:104D8000771F881F91505040A9F79E3F510580F032
:104D90000C941C260C9467265F3FE4F3983ED4F3F2
:104DA000869577956795B795F795E7959F5FC1F7D6
:104DB000FE2B880F911D9695879597F908950E946F
:104DC000F825880B990B089581E090E0F8940C94F5
:104DD0000D27FB01DC0104C08D910190801921F4A5
:104DE00041505040C8F7881B990B0895DC0101C061
:104DF0006D9341505040E0F70895FB01DC018D9127
:104E0000019080190110D9F3990B0895FB01DC0181
:0E4E100001900D920020E1F70895F894FFCF75
:104E1E0090A2DA0D018B00C00100000000044D517C
:104E2E005454040000803FCDCCCC3D6F12833A9594
:104E3E00BFD6337D1D9026B3CE010CCDCCCC3D0A12
:104E4E00D7233C17B7D13877CC2B329595E6241F54
:104E5E00B14F0A000020410000C84200401C46200D
:104E6E00BCBE4CCA1B0E5AAEC59D7401005E00003E
:104E7E000000000000630C630CD201630C630C6332
:104E8E000C630C630CE200630C630C630C630C6329
:104E9E000C630C630C630C630C0000000088004B69
:104EAE0005D20187009E006D0225028503D50117EC
:104EBE0002D4051E039205C2024E02DB00CB00C7D0
:104ECE0000C30000000000BE0B2B0B550B0B0C8615
:104EDE000B640B780B00000000880C650CD201D11E
:104EEE000100000000630C2B0BD201D101630C6397
:104EFE000C630C00000000630C2B0BD201D10100DF
:104F0E00000000AD007706A903C304B9029602346F
:104F1E0002FF06D804B0028B046804C901C601C49E
:104F2E0001A200BA014906EC0A1B06B601000000F8
:104F3E0000350D00000000630C5B534D41525420B0
:104F4E0053454E534F525D205374617274696E67B0
:104F5E002070726F6772616D2E2E2E2E00696F7427
:104F6E002E7061756C686F6262656C2E6D650043A4
:104F7E006F6E6E656374696E6720746F204D515449
:104F8E00542E2E2E0053454E534F5200636F6E6EAD
:104F9E0065637465640043656C736975733A2000CC
:104FAE006E616E00696E66006F7666000D0A0069AE
:104FBE00640054494D44425F50414A544F4E5F4540
:104FCE004D4F4E5F54454D500074656D7065726166
:104FDE0074757265007369676E61747572650032FF
:104FEE003031392D4554492D454D4F4E2D563031CA
:104FFE002D54494D44422D5041544A4F4E00536555
:10500E006E64696E67206461746120746F205061F4
:10501E00747269636B00736D6172746D6574657221
:10502E002F6C6F670054657374204D6573736167E1
:10503E0065006661696C65642077697468207374B5
:10504E006174650022225C5C6208660C6E0A720D49
:10505E007409006E756C6C00652D007472756500B8
:0E506E0066616C73650057495A6E65740000E8
:00000001FF
